{
  "_format": "hh-sol-artifact-1",
  "contractName": "BoxxV2",
  "sourceName": "contracts/BoxxV2.sol",
  "abi": [
    {
      "inputs": [
        {
          "internalType": "address",
          "name": "target",
          "type": "address"
        }
      ],
      "name": "AddressEmptyCode",
      "type": "error"
    },
    {
      "inputs": [
        {
          "internalType": "address",
          "name": "implementation",
          "type": "address"
        }
      ],
      "name": "ERC1967InvalidImplementation",
      "type": "error"
    },
    {
      "inputs": [],
      "name": "ERC1967NonPayable",
      "type": "error"
    },
    {
      "inputs": [],
      "name": "FailedInnerCall",
      "type": "error"
    },
    {
      "inputs": [],
      "name": "InvalidInitialization",
      "type": "error"
    },
    {
      "inputs": [],
      "name": "NotInitializing",
      "type": "error"
    },
    {
      "inputs": [
        {
          "internalType": "address",
          "name": "owner",
          "type": "address"
        }
      ],
      "name": "OwnableInvalidOwner",
      "type": "error"
    },
    {
      "inputs": [
        {
          "internalType": "address",
          "name": "account",
          "type": "address"
        }
      ],
      "name": "OwnableUnauthorizedAccount",
      "type": "error"
    },
    {
      "inputs": [],
      "name": "UUPSUnauthorizedCallContext",
      "type": "error"
    },
    {
      "inputs": [
        {
          "internalType": "bytes32",
          "name": "slot",
          "type": "bytes32"
        }
      ],
      "name": "UUPSUnsupportedProxiableUUID",
      "type": "error"
    },
    {
      "anonymous": false,
      "inputs": [
        {
          "indexed": false,
          "internalType": "uint64",
          "name": "version",
          "type": "uint64"
        }
      ],
      "name": "Initialized",
      "type": "event"
    },
    {
      "anonymous": false,
      "inputs": [
        {
          "indexed": true,
          "internalType": "address",
          "name": "previousOwner",
          "type": "address"
        },
        {
          "indexed": true,
          "internalType": "address",
          "name": "newOwner",
          "type": "address"
        }
      ],
      "name": "OwnershipTransferred",
      "type": "event"
    },
    {
      "anonymous": false,
      "inputs": [
        {
          "indexed": true,
          "internalType": "address",
          "name": "implementation",
          "type": "address"
        }
      ],
      "name": "Upgraded",
      "type": "event"
    },
    {
      "inputs": [],
      "name": "UPGRADE_INTERFACE_VERSION",
      "outputs": [
        {
          "internalType": "string",
          "name": "",
          "type": "string"
        }
      ],
      "stateMutability": "view",
      "type": "function"
    },
    {
      "inputs": [],
      "name": "addObject",
      "outputs": [],
      "stateMutability": "nonpayable",
      "type": "function"
    },
    {
      "inputs": [],
      "name": "boxVersion",
      "outputs": [
        {
          "internalType": "uint256",
          "name": "",
          "type": "uint256"
        }
      ],
      "stateMutability": "pure",
      "type": "function"
    },
    {
      "inputs": [
        {
          "internalType": "uint256",
          "name": "objects",
          "type": "uint256"
        },
        {
          "internalType": "address",
          "name": "multisig",
          "type": "address"
        }
      ],
      "name": "initialize",
      "outputs": [],
      "stateMutability": "nonpayable",
      "type": "function"
    },
    {
      "inputs": [],
      "name": "numberOfObjects",
      "outputs": [
        {
          "internalType": "uint256",
          "name": "",
          "type": "uint256"
        }
      ],
      "stateMutability": "view",
      "type": "function"
    },
    {
      "inputs": [],
      "name": "owner",
      "outputs": [
        {
          "internalType": "address",
          "name": "",
          "type": "address"
        }
      ],
      "stateMutability": "view",
      "type": "function"
    },
    {
      "inputs": [],
      "name": "proxiableUUID",
      "outputs": [
        {
          "internalType": "bytes32",
          "name": "",
          "type": "bytes32"
        }
      ],
      "stateMutability": "view",
      "type": "function"
    },
    {
      "inputs": [],
      "name": "removeOneObject",
      "outputs": [],
      "stateMutability": "nonpayable",
      "type": "function"
    },
    {
      "inputs": [],
      "name": "renounceOwnership",
      "outputs": [],
      "stateMutability": "nonpayable",
      "type": "function"
    },
    {
      "inputs": [
        {
          "internalType": "address",
          "name": "newOwner",
          "type": "address"
        }
      ],
      "name": "transferOwnership",
      "outputs": [],
      "stateMutability": "nonpayable",
      "type": "function"
    },
    {
      "inputs": [
        {
          "internalType": "address",
          "name": "newImplementation",
          "type": "address"
        },
        {
          "internalType": "bytes",
          "name": "data",
          "type": "bytes"
        }
      ],
      "name": "upgradeToAndCall",
      "outputs": [],
      "stateMutability": "payable",
      "type": "function"
    }
  ],
  "bytecode": "0x60a06040523073ffffffffffffffffffffffffffffffffffffffff1660809073ffffffffffffffffffffffffffffffffffffffff1681525034801561004357600080fd5b5060805161147c61006d600039600081816105b30152818161060801526107c3015261147c6000f3fe60806040526004361061009c5760003560e01c80638da5cb5b116100645780638da5cb5b14610141578063ad3cb1cc1461016c578063c25fc49314610197578063c4df490e146101ae578063da35a26f146101d9578063f2fde38b146102025761009c565b80634f1ef286146100a157806352d1902d146100bd57806362029d2a146100e8578063658504d1146100ff578063715018a61461012a575b600080fd5b6100bb60048036038101906100b69190610ff0565b61022b565b005b3480156100c957600080fd5b506100d261024a565b6040516100df9190611065565b60405180910390f35b3480156100f457600080fd5b506100fd61027d565b005b34801561010b57600080fd5b50610114610298565b6040516101219190611099565b60405180910390f35b34801561013657600080fd5b5061013f61029e565b005b34801561014d57600080fd5b506101566102b2565b60405161016391906110c3565b60405180910390f35b34801561017857600080fd5b506101816102ea565b60405161018e919061115d565b60405180910390f35b3480156101a357600080fd5b506101ac610323565b005b3480156101ba57600080fd5b506101c3610383565b6040516101d09190611099565b60405180910390f35b3480156101e557600080fd5b5061020060048036038101906101fb91906111ab565b61038c565b005b34801561020e57600080fd5b50610229600480360381019061022491906111eb565b61052b565b005b6102336105b1565b61023c82610697565b61024682826106a2565b5050565b60006102546107c1565b7f360894a13ba1a3210667c828492db98dca3e2076cc3735a920a3ca505d382bbc60001b905090565b600160008082825461028f9190611247565b92505081905550565b60005481565b6102a6610848565b6102b060006108cf565b565b6000806102bd6109a6565b90508060000160009054906101000a900473ffffffffffffffffffffffffffffffffffffffff1691505090565b6040518060400160405280600581526020017f352e302e3000000000000000000000000000000000000000000000000000000081525081565b600160005411610368576040517f08c379a000000000000000000000000000000000000000000000000000000000815260040161035f906112c7565b60405180910390fd5b600160008082825461037a91906112e7565b92505081905550565b60006002905090565b60006103966109ce565b905060008160000160089054906101000a900460ff1615905060008260000160009054906101000a900467ffffffffffffffff1690506000808267ffffffffffffffff161480156103e45750825b9050600060018367ffffffffffffffff16148015610419575060003073ffffffffffffffffffffffffffffffffffffffff163b145b905081158015610427575080155b1561045e576040517ff92ee8a900000000000000000000000000000000000000000000000000000000815260040160405180910390fd5b60018560000160006101000a81548167ffffffffffffffff021916908367ffffffffffffffff16021790555083156104ae5760018560000160086101000a81548160ff0219169083151502179055505b6104b66109f6565b6104bf86610a00565b8660008190555083156105225760008560000160086101000a81548160ff0219169083151502179055507fc7f505b2f371ae2175ee4913f4499e1f2633a7b5936321eed1cdaeb6115181d260016040516105199190611374565b60405180910390a15b50505050505050565b610533610848565b600073ffffffffffffffffffffffffffffffffffffffff168173ffffffffffffffffffffffffffffffffffffffff16036105a55760006040517f1e4fbdf700000000000000000000000000000000000000000000000000000000815260040161059c91906110c3565b60405180910390fd5b6105ae816108cf565b50565b7f000000000000000000000000000000000000000000000000000000000000000073ffffffffffffffffffffffffffffffffffffffff163073ffffffffffffffffffffffffffffffffffffffff16148061065e57507f000000000000000000000000000000000000000000000000000000000000000073ffffffffffffffffffffffffffffffffffffffff16610645610a14565b73ffffffffffffffffffffffffffffffffffffffff1614155b15610695576040517fe07c8dba00000000000000000000000000000000000000000000000000000000815260040160405180910390fd5b565b61069f610848565b50565b8173ffffffffffffffffffffffffffffffffffffffff166352d1902d6040518163ffffffff1660e01b8152600401602060405180830381865afa92505050801561070a57506040513d601f19601f8201168201806040525081019061070791906113bb565b60015b61074b57816040517f4c9c8ce300000000000000000000000000000000000000000000000000000000815260040161074291906110c3565b60405180910390fd5b7f360894a13ba1a3210667c828492db98dca3e2076cc3735a920a3ca505d382bbc60001b81146107b257806040517faa1d49a40000000000000000000000000000000000000000000000000000000081526004016107a99190611065565b60405180910390fd5b6107bc8383610a6b565b505050565b7f000000000000000000000000000000000000000000000000000000000000000073ffffffffffffffffffffffffffffffffffffffff163073ffffffffffffffffffffffffffffffffffffffff1614610846576040517fe07c8dba00000000000000000000000000000000000000000000000000000000815260040160405180910390fd5b565b610850610ade565b73ffffffffffffffffffffffffffffffffffffffff1661086e6102b2565b73ffffffffffffffffffffffffffffffffffffffff16146108cd57610891610ade565b6040517f118cdaa70000000000000000000000000000000000000000000000000000000081526004016108c491906110c3565b60405180910390fd5b565b60006108d96109a6565b905060008160000160009054906101000a900473ffffffffffffffffffffffffffffffffffffffff169050828260000160006101000a81548173ffffffffffffffffffffffffffffffffffffffff021916908373ffffffffffffffffffffffffffffffffffffffff1602179055508273ffffffffffffffffffffffffffffffffffffffff168173ffffffffffffffffffffffffffffffffffffffff167f8be0079c531659141344cd1fd0a4f28419497f9722a3daafe3b4186f6b6457e060405160405180910390a3505050565b60007f9016d09d72d40fdae2fd8ceac6b6234c7706214fd39c1cd1e609a0528c199300905090565b60007ff0c57e16840df040f15088dc2f81fe391c3923bec73e23a9662efc9c229c6a00905090565b6109fe610ae6565b565b610a08610ae6565b610a1181610b26565b50565b6000610a427f360894a13ba1a3210667c828492db98dca3e2076cc3735a920a3ca505d382bbc60001b610bac565b60000160009054906101000a900473ffffffffffffffffffffffffffffffffffffffff16905090565b610a7482610bb6565b8173ffffffffffffffffffffffffffffffffffffffff167fbc7cd75a20ee27fd9adebab32041f755214dbc6bffa90cc0225b39da2e5c2d3b60405160405180910390a2600081511115610ad157610acb8282610c83565b50610ada565b610ad9610d07565b5b5050565b600033905090565b610aee610d44565b610b24576040517fd7e6bcf800000000000000000000000000000000000000000000000000000000815260040160405180910390fd5b565b610b2e610ae6565b600073ffffffffffffffffffffffffffffffffffffffff168173ffffffffffffffffffffffffffffffffffffffff1603610ba05760006040517f1e4fbdf7000000000000000000000000000000000000000000000000000000008152600401610b9791906110c3565b60405180910390fd5b610ba9816108cf565b50565b6000819050919050565b60008173ffffffffffffffffffffffffffffffffffffffff163b03610c1257806040517f4c9c8ce3000000000000000000000000000000000000000000000000000000008152600401610c0991906110c3565b60405180910390fd5b80610c3f7f360894a13ba1a3210667c828492db98dca3e2076cc3735a920a3ca505d382bbc60001b610bac565b60000160006101000a81548173ffffffffffffffffffffffffffffffffffffffff021916908373ffffffffffffffffffffffffffffffffffffffff16021790555050565b60606000808473ffffffffffffffffffffffffffffffffffffffff1684604051610cad919061142f565b600060405180830381855af49150503d8060008114610ce8576040519150601f19603f3d011682016040523d82523d6000602084013e610ced565b606091505b5091509150610cfd858383610d64565b9250505092915050565b6000341115610d42576040517fb398979f00000000000000000000000000000000000000000000000000000000815260040160405180910390fd5b565b6000610d4e6109ce565b60000160089054906101000a900460ff16905090565b606082610d7957610d7482610df3565b610deb565b60008251148015610da1575060008473ffffffffffffffffffffffffffffffffffffffff163b145b15610de357836040517f9996b315000000000000000000000000000000000000000000000000000000008152600401610dda91906110c3565b60405180910390fd5b819050610dec565b5b9392505050565b600081511115610e065780518082602001fd5b6040517f1425ea4200000000000000000000000000000000000000000000000000000000815260040160405180910390fd5b6000604051905090565b600080fd5b600080fd5b600073ffffffffffffffffffffffffffffffffffffffff82169050919050565b6000610e7782610e4c565b9050919050565b610e8781610e6c565b8114610e9257600080fd5b50565b600081359050610ea481610e7e565b92915050565b600080fd5b600080fd5b6000601f19601f8301169050919050565b7f4e487b7100000000000000000000000000000000000000000000000000000000600052604160045260246000fd5b610efd82610eb4565b810181811067ffffffffffffffff82111715610f1c57610f1b610ec5565b5b80604052505050565b6000610f2f610e38565b9050610f3b8282610ef4565b919050565b600067ffffffffffffffff821115610f5b57610f5a610ec5565b5b610f6482610eb4565b9050602081019050919050565b82818337600083830152505050565b6000610f93610f8e84610f40565b610f25565b905082815260208101848484011115610faf57610fae610eaf565b5b610fba848285610f71565b509392505050565b600082601f830112610fd757610fd6610eaa565b5b8135610fe7848260208601610f80565b91505092915050565b6000806040838503121561100757611006610e42565b5b600061101585828601610e95565b925050602083013567ffffffffffffffff81111561103657611035610e47565b5b61104285828601610fc2565b9150509250929050565b6000819050919050565b61105f8161104c565b82525050565b600060208201905061107a6000830184611056565b92915050565b6000819050919050565b61109381611080565b82525050565b60006020820190506110ae600083018461108a565b92915050565b6110bd81610e6c565b82525050565b60006020820190506110d860008301846110b4565b92915050565b600081519050919050565b600082825260208201905092915050565b60005b838110156111185780820151818401526020810190506110fd565b60008484015250505050565b600061112f826110de565b61113981856110e9565b93506111498185602086016110fa565b61115281610eb4565b840191505092915050565b600060208201905081810360008301526111778184611124565b905092915050565b61118881611080565b811461119357600080fd5b50565b6000813590506111a58161117f565b92915050565b600080604083850312156111c2576111c1610e42565b5b60006111d085828601611196565b92505060206111e185828601610e95565b9150509250929050565b60006020828403121561120157611200610e42565b5b600061120f84828501610e95565b91505092915050565b7f4e487b7100000000000000000000000000000000000000000000000000000000600052601160045260246000fd5b600061125282611080565b915061125d83611080565b925082820190508082111561127557611274611218565b5b92915050565b7f4e6f7468696e6720696e73696465000000000000000000000000000000000000600082015250565b60006112b1600e836110e9565b91506112bc8261127b565b602082019050919050565b600060208201905081810360008301526112e0816112a4565b9050919050565b60006112f282611080565b91506112fd83611080565b925082820390508181111561131557611314611218565b5b92915050565b6000819050919050565b600067ffffffffffffffff82169050919050565b6000819050919050565b600061135e6113596113548461131b565b611339565b611325565b9050919050565b61136e81611343565b82525050565b60006020820190506113896000830184611365565b92915050565b6113988161104c565b81146113a357600080fd5b50565b6000815190506113b58161138f565b92915050565b6000602082840312156113d1576113d0610e42565b5b60006113df848285016113a6565b91505092915050565b600081519050919050565b600081905092915050565b6000611409826113e8565b61141381856113f3565b93506114238185602086016110fa565b80840191505092915050565b600061143b82846113fe565b91508190509291505056fea264697066735822122000e74d6d5a67e9d6656bd5a2b904bfac00416469e40c2c13a864b924223c756764736f6c63430008140033",
  "linkReferences": {},
  "deployedLinkReferences": {}
}